{
    "contractName": "StructsAndArrays",
    "abi": [
        {
            "inputs": [
                {
                    "internalType": "string",
                    "name": "_name",
                    "type": "string"
                },
                {
                    "internalType": "uint256",
                    "name": "_dna",
                    "type": "uint256"
                }
            ],
            "name": "addToArray",
            "outputs": [],
            "stateMutability": "nonpayable",
            "type": "function"
        },
        {
            "inputs": [
                {
                    "internalType": "uint256",
                    "name": "",
                    "type": "uint256"
                }
            ],
            "name": "people",
            "outputs": [
                {
                    "internalType": "uint256",
                    "name": "age",
                    "type": "uint256"
                },
                {
                    "internalType": "string",
                    "name": "name",
                    "type": "string"
                }
            ],
            "stateMutability": "view",
            "type": "function"
        }
    ],
    "bytecode": "60ac6080818152610100604052600760c0818152665361746f73686960c81b60e090815260a091909152600193845591929161003e9160029190610053565b50505034801561004d57600080fd5b50610127565b82805461005f906100ec565b90600052602060002090601f01602090048101928261008157600085556100c7565b82601f1061009a57805160ff19168380011785556100c7565b828001600101855582156100c7579182015b828111156100c75782518255916020019190600101906100ac565b506100d39291506100d7565b5090565b5b808211156100d357600081556001016100d8565b600181811c9082168061010057607f821691505b6020821081141561012157634e487b7160e01b600052602260045260246000fd5b50919050565b610635806101366000396000f3fe608060405234801561001057600080fd5b50600436106100365760003560e01c806384376fd21461003b5780639e7a13ad14610050575b600080fd5b61004e610049366004610489565b61007a565b005b61006361005e36600461053b565b6102bd565b604051610071929190610553565b60405180910390f35b6000805460018181018355918052815460029182027f290decd9548b62a8d60345a988386fc84ba6bc95484008f6362f93160ef3e5638101918255825491927f290decd9548b62a8d60345a988386fc84ba6bc95484008f6362f93160ef3e564909101916100e7906105ae565b6100f2929190610375565b50506040805180820182526010815281518083019092526007825266566974616c696b60c81b6020808401919091528082019283526000805460018101825590805282517f290decd9548b62a8d60345a988386fc84ba6bc95484008f6362f93160ef3e563600290920291820190815593518051939550610199937f290decd9548b62a8d60345a988386fc84ba6bc95484008f6362f93160ef3e564909201920190610400565b50506040805180820190915260118152602080820185815260008054600181018255908052835160029091027f290decd9548b62a8d60345a988386fc84ba6bc95484008f6362f93160ef3e5638101918255915180519495509093610227937f290decd9548b62a8d60345a988386fc84ba6bc95484008f6362f93160ef3e564909301929190910190610400565b505050606060058160008151811061024f57634e487b7160e01b600052603260045260246000fd5b602002602001018181525050600a8160018151811061027e57634e487b7160e01b600052603260045260246000fd5b60200260200101818152505081816002815181106102ac57634e487b7160e01b600052603260045260246000fd5b602002602001018181525050505050565b600081815481106102cd57600080fd5b600091825260209091206002909102018054600182018054919350906102f2906105ae565b80601f016020809104026020016040519081016040528092919081815260200182805461031e906105ae565b801561036b5780601f106103405761010080835404028352916020019161036b565b820191906000526020600020905b81548152906001019060200180831161034e57829003601f168201915b5050505050905082565b828054610381906105ae565b90600052602060002090601f0160209004810192826103a357600085556103f0565b82601f106103b457805485556103f0565b828001600101855582156103f057600052602060002091601f016020900482015b828111156103f05782548255916001019190600101906103d5565b506103fc929150610474565b5090565b82805461040c906105ae565b90600052602060002090601f01602090048101928261042e57600085556103f0565b82601f1061044757805160ff19168380011785556103f0565b828001600101855582156103f0579182015b828111156103f0578251825591602001919060010190610459565b5b808211156103fc5760008155600101610475565b6000806040838503121561049b578182fd5b823567ffffffffffffffff808211156104b2578384fd5b818501915085601f8301126104c5578384fd5b8135818111156104d7576104d76105e9565b604051601f8201601f19908116603f011681019083821181831017156104ff576104ff6105e9565b81604052828152886020848701011115610517578687fd5b82602086016020830137918201602090810196909652509694909301359450505050565b60006020828403121561054c578081fd5b5035919050565b600083825260206040818401528351806040850152825b818110156105865785810183015185820160600152820161056a565b818111156105975783606083870101525b50601f01601f191692909201606001949350505050565b600181811c908216806105c257607f821691505b602082108114156105e357634e487b7160e01b600052602260045260246000fd5b50919050565b634e487b7160e01b600052604160045260246000fdfea264697066735822122044ce1c0ea71040eb93847c6c4b52ac526a859cf598dd1de3b5184f448cf90cc064736f6c63430008030033",
    "sourcePath": "/home/szczeprez/Hyperledger/solidity-basic/StructsAndArray.sol",
    "compiler": {
        "name": "solc",
        "version": "0.8.3+commit.8d00100c"
    },
    "functionHashes": {
        "addToArray(string,uint256)": "84376fd2",
        "people(uint256)": "9e7a13ad"
    },
    "gasEstimates": {
        "creation": {
            "codeDepositCost": "317800",
            "executionCost": "infinite",
            "totalCost": "infinite"
        },
        "external": {
            "addToArray(string,uint256)": "infinite",
            "people(uint256)": "infinite"
        }
    }
}